{"abi":[{"type":"function","name":"DISPUTE_WINDOW","inputs":[],"outputs":[{"name":"","type":"uint256","internalType":"uint256"}],"stateMutability":"view"},{"type":"function","name":"TIMEOUT_HOLD_BPS","inputs":[],"outputs":[{"name":"","type":"uint256","internalType":"uint256"}],"stateMutability":"view"},{"type":"function","name":"UPGRADE_INTERFACE_VERSION","inputs":[],"outputs":[{"name":"","type":"string","internalType":"string"}],"stateMutability":"view"},{"type":"function","name":"assignMission","inputs":[{"name":"missionId","type":"bytes32","internalType":"bytes32"},{"name":"agent","type":"address","internalType":"address"}],"outputs":[],"stateMutability":"nonpayable"},{"type":"function","name":"checkDepsResolved","inputs":[{"name":"missionId","type":"bytes32","internalType":"bytes32"}],"outputs":[{"name":"","type":"bool","internalType":"bool"}],"stateMutability":"view"},{"type":"function","name":"createMission","inputs":[{"name":"expectedDurationMinutes","type":"uint256","internalType":"uint256"}],"outputs":[{"name":"missionId","type":"bytes32","internalType":"bytes32"}],"stateMutability":"nonpayable"},{"type":"function","name":"disputeEndTimes","inputs":[{"name":"","type":"bytes32","internalType":"bytes32"}],"outputs":[{"name":"","type":"uint256","internalType":"uint256"}],"stateMutability":"view"},{"type":"function","name":"fundMission","inputs":[{"name":"missionId","type":"bytes32","internalType":"bytes32"},{"name":"amount","type":"uint256","internalType":"uint256"}],"outputs":[],"stateMutability":"nonpayable"},{"type":"function","name":"initialize","inputs":[{"name":"_usdc","type":"address","internalType":"address"},{"name":"_owner","type":"address","internalType":"address"}],"outputs":[],"stateMutability":"nonpayable"},{"type":"function","name":"missionCounter","inputs":[],"outputs":[{"name":"","type":"uint256","internalType":"uint256"}],"stateMutability":"view"},{"type":"function","name":"missionDeps","inputs":[{"name":"","type":"bytes32","internalType":"bytes32"},{"name":"","type":"uint256","internalType":"uint256"}],"outputs":[{"name":"","type":"bytes32","internalType":"bytes32"}],"stateMutability":"view"},{"type":"function","name":"missions","inputs":[{"name":"","type":"bytes32","internalType":"bytes32"}],"outputs":[{"name":"state","type":"uint8","internalType":"enum MissionEscrow.MissionState"},{"name":"creator","type":"address","internalType":"address"},{"name":"agent","type":"address","internalType":"address"},{"name":"bounty","type":"uint256","internalType":"uint256"},{"name":"heldAmount","type":"uint256","internalType":"uint256"},{"name":"releasedAmount","type":"uint256","internalType":"uint256"},{"name":"startBlock","type":"uint256","internalType":"uint256"},{"name":"expectedDurationMinutes","type":"uint256","internalType":"uint256"},{"name":"nonce","type":"uint256","internalType":"uint256"},{"name":"rootHash","type":"bytes32","internalType":"bytes32"}],"stateMutability":"view"},{"type":"function","name":"owner","inputs":[],"outputs":[{"name":"","type":"address","internalType":"address"}],"stateMutability":"view"},{"type":"function","name":"proxiableUUID","inputs":[],"outputs":[{"name":"","type":"bytes32","internalType":"bytes32"}],"stateMutability":"view"},{"type":"function","name":"registerAgent","inputs":[{"name":"agent","type":"address","internalType":"address"}],"outputs":[],"stateMutability":"nonpayable"},{"type":"function","name":"registeredAgents","inputs":[{"name":"","type":"address","internalType":"address"}],"outputs":[{"name":"","type":"bool","internalType":"bool"}],"stateMutability":"view"},{"type":"function","name":"renounceOwnership","inputs":[],"outputs":[],"stateMutability":"nonpayable"},{"type":"function","name":"resolveDispute","inputs":[{"name":"missionId","type":"bytes32","internalType":"bytes32"},{"name":"to","type":"address","internalType":"address"}],"outputs":[],"stateMutability":"nonpayable"},{"type":"function","name":"setDependencies","inputs":[{"name":"missionId","type":"bytes32","internalType":"bytes32"},{"name":"deps","type":"bytes32[]","internalType":"bytes32[]"}],"outputs":[],"stateMutability":"nonpayable"},{"type":"function","name":"submitEAL","inputs":[{"name":"missionId","type":"bytes32","internalType":"bytes32"},{"name":"rootHash","type":"bytes32","internalType":"bytes32"},{"name":"nonce","type":"uint256","internalType":"uint256"}],"outputs":[],"stateMutability":"nonpayable"},{"type":"function","name":"timeoutHolds","inputs":[{"name":"","type":"bytes32","internalType":"bytes32"}],"outputs":[{"name":"","type":"uint256","internalType":"uint256"}],"stateMutability":"view"},{"type":"function","name":"transferOwnership","inputs":[{"name":"newOwner","type":"address","internalType":"address"}],"outputs":[],"stateMutability":"nonpayable"},{"type":"function","name":"triggerTimeout","inputs":[{"name":"missionId","type":"bytes32","internalType":"bytes32"}],"outputs":[],"stateMutability":"nonpayable"},{"type":"function","name":"upgradeToAndCall","inputs":[{"name":"newImplementation","type":"address","internalType":"address"},{"name":"data","type":"bytes","internalType":"bytes"}],"outputs":[],"stateMutability":"payable"},{"type":"function","name":"usdc","inputs":[],"outputs":[{"name":"","type":"address","internalType":"contract IERC20"}],"stateMutability":"view"},{"type":"event","name":"AgentRegistered","inputs":[{"name":"agent","type":"address","indexed":true,"internalType":"address"}],"anonymous":false},{"type":"event","name":"DependenciesSet","inputs":[{"name":"missionId","type":"bytes32","indexed":true,"internalType":"bytes32"},{"name":"dependencies","type":"bytes32[]","indexed":false,"internalType":"bytes32[]"}],"anonymous":false},{"type":"event","name":"DisputeResolved","inputs":[{"name":"missionId","type":"bytes32","indexed":true,"internalType":"bytes32"},{"name":"recipient","type":"address","indexed":false,"internalType":"address"},{"name":"amount","type":"uint256","indexed":false,"internalType":"uint256"}],"anonymous":false},{"type":"event","name":"Initialized","inputs":[{"name":"version","type":"uint64","indexed":false,"internalType":"uint64"}],"anonymous":false},{"type":"event","name":"MissionAssigned","inputs":[{"name":"missionId","type":"bytes32","indexed":true,"internalType":"bytes32"},{"name":"agent","type":"address","indexed":true,"internalType":"address"},{"name":"nonce","type":"uint256","indexed":false,"internalType":"uint256"}],"anonymous":false},{"type":"event","name":"MissionCompleted","inputs":[{"name":"missionId","type":"bytes32","indexed":true,"internalType":"bytes32"},{"name":"rootHash","type":"bytes32","indexed":false,"internalType":"bytes32"},{"name":"amountReleased","type":"uint256","indexed":false,"internalType":"uint256"}],"anonymous":false},{"type":"event","name":"MissionCreated","inputs":[{"name":"missionId","type":"bytes32","indexed":true,"internalType":"bytes32"},{"name":"creator","type":"address","indexed":true,"internalType":"address"},{"name":"bounty","type":"uint256","indexed":false,"internalType":"uint256"},{"name":"expectedDurationMinutes","type":"uint256","indexed":false,"internalType":"uint256"}],"anonymous":false},{"type":"event","name":"MissionTimeout","inputs":[{"name":"missionId","type":"bytes32","indexed":true,"internalType":"bytes32"}],"anonymous":false},{"type":"event","name":"OwnershipTransferred","inputs":[{"name":"previousOwner","type":"address","indexed":true,"internalType":"address"},{"name":"newOwner","type":"address","indexed":true,"internalType":"address"}],"anonymous":false},{"type":"event","name":"Upgraded","inputs":[{"name":"implementation","type":"address","indexed":true,"internalType":"address"}],"anonymous":false},{"type":"error","name":"AddressEmptyCode","inputs":[{"name":"target","type":"address","internalType":"address"}]},{"type":"error","name":"ERC1967InvalidImplementation","inputs":[{"name":"implementation","type":"address","internalType":"address"}]},{"type":"error","name":"ERC1967NonPayable","inputs":[]},{"type":"error","name":"FailedCall","inputs":[]},{"type":"error","name":"InvalidInitialization","inputs":[]},{"type":"error","name":"NotInitializing","inputs":[]},{"type":"error","name":"OwnableInvalidOwner","inputs":[{"name":"owner","type":"address","internalType":"address"}]},{"type":"error","name":"OwnableUnauthorizedAccount","inputs":[{"name":"account","type":"address","internalType":"address"}]},{"type":"error","name":"UUPSUnauthorizedCallContext","inputs":[]},{"type":"error","name":"UUPSUnsupportedProxiableUUID","inputs":[{"name":"slot","type":"bytes32","internalType":"bytes32"}]}],"bytecode":{"object":"0x60a0604052306080523480156012575f5ffd5b50608051611ed76100395f395f81816115e50152818161160e015261174d0152611ed75ff3fe608060405260043610610161575f3560e01c8063715018a6116100cd578063bffe162111610087578063f2fde38b11610062578063f2fde38b146104c0578063f585dc57146104df578063fa8066c4146104f5578063fed0deb414610514575f5ffd5b8063bffe162114610463578063e1f5f86614610482578063ed7bcf05146104a1575f5ffd5b8063715018a61461036457806374ee82fc146103785780638da5cb5b146103b6578063ad3cb1cc146103f2578063b27634551461042f578063bb30c94014610444575f5ffd5b806352d1902d1161011e57806352d1902d146102355780635e2bef2c146102495780635e7d2b4a146102745780635f62e5ad146102935780636674d9701461031a5780636a87446614610345575f5ffd5b806317220f8a14610165578063306b9bb91461018d5780633e413bee146101ae57806343ef62bd146101e4578063485cc955146102035780634f1ef28614610222575b5f5ffd5b348015610170575f5ffd5b5061017a61138881565b6040519081526020015b60405180910390f35b348015610198575f5ffd5b506101ac6101a7366004611a67565b610533565b005b3480156101b9575f5ffd5b505f546101cc906001600160a01b031681565b6040516001600160a01b039091168152602001610184565b3480156101ef575f5ffd5b5061017a6101fe366004611a87565b6105dc565b34801561020e575f5ffd5b506101ac61021d366004611aa7565b610607565b6101ac610230366004611aec565b610768565b348015610240575f5ffd5b5061017a610787565b348015610254575f5ffd5b5061017a610263366004611bb0565b60046020525f908152604090205481565b34801561027f575f5ffd5b506101ac61028e366004611a87565b6107a2565b34801561029e575f5ffd5b506103046102ad366004611bb0565b600260208190525f918252604090912080546001820154928201546003830154600484015460058501546006860154600787015460089097015460ff8716986001600160a01b03610100909804881698971696908a565b6040516101849a99989796959493929190611bdb565b348015610325575f5ffd5b5061017a610334366004611bb0565b60056020525f908152604090205481565b348015610350575f5ffd5b506101ac61035f366004611c48565b610919565b34801561036f575f5ffd5b506101ac610b6e565b348015610383575f5ffd5b506103a6610392366004611a67565b60016020525f908152604090205460ff1681565b6040519015158152602001610184565b3480156103c1575f5ffd5b507f9016d09d72d40fdae2fd8ceac6b6234c7706214fd39c1cd1e609a0528c199300546001600160a01b03166101cc565b3480156103fd575f5ffd5b50610422604051806040016040528060058152602001640352e302e360dc1b81525081565b6040516101849190611c69565b34801561043a575f5ffd5b5061017a60065481565b34801561044f575f5ffd5b506101ac61045e366004611c48565b610b81565b34801561046e575f5ffd5b506101ac61047d366004611c9e565b610dca565b34801561048d575f5ffd5b506101ac61049c366004611d18565b610eb9565b3480156104ac575f5ffd5b506101ac6104bb366004611bb0565b611145565b3480156104cb575f5ffd5b506101ac6104da366004611a67565b6113a1565b3480156104ea575f5ffd5b5061017a6201518081565b348015610500575f5ffd5b5061017a61050f366004611bb0565b6113de565b34801561051f575f5ffd5b506103a661052e366004611bb0565b6114c6565b61053b611544565b6001600160a01b03811661058e5760405162461bcd60e51b8152602060048201526015602482015274496e76616c6964206167656e74206164647265737360581b60448201526064015b60405180910390fd5b6001600160a01b0381165f818152600160208190526040808320805460ff1916909217909155517f82d0829d9d481e4cb9913897f9b9c903271c4db68c7b3324071d2a7e3b2c5ff09190a250565b6003602052815f5260405f2081815481106105f5575f80fd5b905f5260205f20015f91509150505481565b5f61061061159f565b805490915060ff600160401b820416159067ffffffffffffffff165f811580156106375750825b90505f8267ffffffffffffffff1660011480156106535750303b155b905081158015610661575080155b1561067f5760405163f92ee8a960e01b815260040160405180910390fd5b845467ffffffffffffffff1916600117855583156106a957845460ff60401b1916600160401b1785555b6106b2866115c9565b6001600160a01b0387166106ff5760405162461bcd60e51b8152602060048201526014602482015273496e76616c69642055534443206164647265737360601b6044820152606401610585565b5f80546001600160a01b0319166001600160a01b038916179055831561075f57845460ff60401b19168555604051600181527fc7f505b2f371ae2175ee4913f4499e1f2633a7b5936321eed1cdaeb6115181d29060200160405180910390a15b50505050505050565b6107706115da565b6107798261167e565b6107838282611686565b5050565b5f610790611742565b505f516020611e825f395f51905f5290565b5f8281526002602052604090206001815460ff1660048111156107c7576107c7611bc7565b146107e45760405162461bcd60e51b815260040161058590611d41565b5f82116108285760405162461bcd60e51b81526020600482015260126024820152710416d6f756e74206d757374206265203e20360741b6044820152606401610585565b81816002015f82825461083b9190611d8c565b9250508190555081816003015f8282546108559190611d8c565b90915550505f546040516323b872dd60e01b8152336004820152306024820152604481018490526001600160a01b03909116906323b872dd906064016020604051808303815f875af11580156108ad573d5f5f3e3d5ffd5b505050506040513d601f19601f820116820180604052508101906108d19190611d9f565b6109145760405162461bcd60e51b81526020600482015260146024820152731554d110c81d1c985b9cd9995c8819985a5b195960621b6044820152606401610585565b505050565b610921611544565b5f8281526002602052604090206004815460ff16600481111561094657610946611bc7565b146109935760405162461bcd60e51b815260206004820152601c60248201527f4d697373696f6e206e6f7420696e2054494d454f5554207374617465000000006044820152606401610585565b5f838152600460205260409020546109e05760405162461bcd60e51b815260206004820152601060248201526f139bc8199d5b991cc81bdb881a1bdb1960821b6044820152606401610585565b5f8381526004602090815260408083205460059092529091205442811115610a435760405162461bcd60e51b8152602060048201526016602482015275446973707574652077696e646f77206f6e676f696e6760501b6044820152606401610585565b5f858152600460208190526040822082905584018054849290610a67908490611d8c565b90915550505f5460405163a9059cbb60e01b81526001600160a01b038681166004830152602482018590529091169063a9059cbb906044016020604051808303815f875af1158015610abb573d5f5f3e3d5ffd5b505050506040513d601f19601f82011682018060405250810190610adf9190611d9f565b610b225760405162461bcd60e51b81526020600482015260146024820152731554d110c81d1c985b9cd9995c8819985a5b195960621b6044820152606401610585565b604080516001600160a01b03861681526020810184905286917fe44b3676d6df957def7f6b146c2d11487456be34f4233923b46216cfb196467d91015b60405180910390a25050505050565b610b76611544565b610b7f5f61178b565b565b5f828152600260205260409020805461010090046001600160a01b03163314610be25760405162461bcd60e51b81526020600482015260136024820152722737ba1036b4b9b9b4b7b71031b932b0ba37b960691b6044820152606401610585565b6001815460ff166004811115610bfa57610bfa611bc7565b14610c175760405162461bcd60e51b815260040161058590611d41565b6001600160a01b0382165f9081526001602052604090205460ff16610c755760405162461bcd60e51b81526020600482015260146024820152731059d95b9d081b9bdd081c9959da5cdd195c995960621b6044820152606401610585565b5f816002015411610cbd5760405162461bcd60e51b8152602060048201526012602482015271135a5cdcda5bdb881b9bdd08199d5b99195960721b6044820152606401610585565b610cc6836114c6565b610d125760405162461bcd60e51b815260206004820152601960248201527f446570656e64656e63696573206e6f74207265736f6c766564000000000000006044820152606401610585565b805460ff191660021781556001810180546001600160a01b0384166001600160a01b03199091161790556040805160208101859052429181019190915233606090811b6bffffffffffffffffffffffff19169082015260740160408051808303601f190181529082905280516020918201206007840181905582526001600160a01b0384169185917ffda8cf6e771c2164e3eabd910793cfaa8bfdb2b7be7daabc59f8c72274c3de29910160405180910390a3505050565b5f838152600260205260409020805461010090046001600160a01b03163314610e2b5760405162461bcd60e51b81526020600482015260136024820152722737ba1036b4b9b9b4b7b71031b932b0ba37b960691b6044820152606401610585565b6001815460ff166004811115610e4357610e43611bc7565b14610e605760405162461bcd60e51b815260040161058590611d41565b5f848152600360205260409020610e789084846119ef565b50837f92f3dac699a6c33747e0f92d937d5688bab6ceb65ba3e90194ce2e5be6f1dfac8484604051610eab929190611dbe565b60405180910390a250505050565b5f83815260026020819052604090912090815460ff166004811115610ee057610ee0611bc7565b14610f2d5760405162461bcd60e51b815260206004820152601d60248201527f4d697373696f6e206e6f7420696e2041535349474e45442073746174650000006044820152606401610585565b60018101546001600160a01b03163314610f7e5760405162461bcd60e51b8152602060048201526012602482015271139bdd08185cdcda59db9959081859d95b9d60721b6044820152606401610585565b81816007015414610fc15760405162461bcd60e51b815260206004820152600d60248201526c496e76616c6964206e6f6e636560981b6044820152606401610585565b80600701545f0361100b5760405162461bcd60e51b8152602060048201526014602482015273139bdb98d948185b1c9958591e48189d5c9b995960621b6044820152606401610585565b5f6007820181905560088201849055815460ff19166003908117835560048301549083015461103a9190611df5565b905080826004015f82825461104f9190611d8c565b90915550505f54600183015460405163a9059cbb60e01b81526001600160a01b0391821660048201526024810184905291169063a9059cbb906044016020604051808303815f875af11580156110a7573d5f5f3e3d5ffd5b505050506040513d601f19601f820116820180604052508101906110cb9190611d9f565b61110d5760405162461bcd60e51b81526020600482015260136024820152721554d110c81c995b19585cd94819985a5b1959606a1b6044820152606401610585565b604080518581526020810183905286917f3b9c6608ef2373540d5f57780284e116f6c802f865a43b26ee0c44ce0b0362a29101610b5f565b5f81815260026020819052604090912090815460ff16600481111561116c5761116c611bc7565b146111b95760405162461bcd60e51b815260206004820152601d60248201527f4d697373696f6e206e6f7420696e2041535349474e45442073746174650000006044820152606401610585565b5f603c8260050154436111cc9190611df5565b6111d790600c611e08565b6111e19190611e1f565b90508160060154811161122c5760405162461bcd60e51b8152602060048201526013602482015272151a5b595bdd5d081b9bdd081c995858da1959606a1b6044820152606401610585565b815460ff1916600417825560038201545f906127109061124f9061138890611e08565b6112599190611e1f565b90505f81846003015461126c9190611df5565b5f868152600460205260409020839055905061128b6201518042611d8c565b5f8681526005602052604090205580156113705780846004015f8282546112b29190611d8c565b90915550505f54600185015460405163a9059cbb60e01b81526001600160a01b0391821660048201526024810184905291169063a9059cbb906044016020604051808303815f875af115801561130a573d5f5f3e3d5ffd5b505050506040513d601f19601f8201168201806040525081019061132e9190611d9f565b6113705760405162461bcd60e51b81526020600482015260136024820152721554d110c81c995b19585cd94819985a5b1959606a1b6044820152606401610585565b60405185907f3d252369626510700c7031785bfe40650356ed299270dda3c102f24e6faf0da7905f90a25050505050565b6113a9611544565b6001600160a01b0381166113d257604051631e4fbdf760e01b81525f6004820152602401610585565b6113db8161178b565b50565b5f60065f81546113ed90611e3e565b9182905550604051611429919042903390602001928352602083019190915260601b6bffffffffffffffffffffffff1916604082015260540190565b60408051808303601f1901815282825280516020918201205f81815260028084528482208054610100339081026001600160a81b0319909216919091176001178255600682018a905543600583015560038201939093559081015486529285018790529094509092909184917fadbcb4674e8cd1627467b0dcc60540f2e1124b2cca2e2571af61cddb104652c1910160405180910390a350919050565b5f818152600360205260408120815b815481101561153a57600360025f8484815481106114f5576114f5611e56565b5f918252602080832090910154835282019290925260400190205460ff16600481111561152457611524611bc7565b1461153257505f9392505050565b6001016114d5565b5060019392505050565b336115767f9016d09d72d40fdae2fd8ceac6b6234c7706214fd39c1cd1e609a0528c199300546001600160a01b031690565b6001600160a01b031614610b7f5760405163118cdaa760e01b8152336004820152602401610585565b5f807ff0c57e16840df040f15088dc2f81fe391c3923bec73e23a9662efc9c229c6a005b92915050565b6115d16117fb565b6113db81611820565b306001600160a01b037f000000000000000000000000000000000000000000000000000000000000000016148061166057507f00000000000000000000000000000000000000000000000000000000000000006001600160a01b03166116545f516020611e825f395f51905f52546001600160a01b031690565b6001600160a01b031614155b15610b7f5760405163703e46dd60e11b815260040160405180910390fd5b6113db611544565b816001600160a01b03166352d1902d6040518163ffffffff1660e01b8152600401602060405180830381865afa9250505080156116e0575060408051601f3d908101601f191682019092526116dd91810190611e6a565b60015b61170857604051634c9c8ce360e01b81526001600160a01b0383166004820152602401610585565b5f516020611e825f395f51905f52811461173857604051632a87526960e21b815260048101829052602401610585565b6109148383611828565b306001600160a01b037f00000000000000000000000000000000000000000000000000000000000000001614610b7f5760405163703e46dd60e11b815260040160405180910390fd5b7f9016d09d72d40fdae2fd8ceac6b6234c7706214fd39c1cd1e609a0528c19930080546001600160a01b031981166001600160a01b03848116918217845560405192169182907f8be0079c531659141344cd1fd0a4f28419497f9722a3daafe3b4186f6b6457e0905f90a3505050565b61180361187d565b610b7f57604051631afcd79f60e31b815260040160405180910390fd5b6113a96117fb565b61183182611896565b6040516001600160a01b038316907fbc7cd75a20ee27fd9adebab32041f755214dbc6bffa90cc0225b39da2e5c2d3b905f90a28051156118755761091482826118f9565b610783611999565b5f61188661159f565b54600160401b900460ff16919050565b806001600160a01b03163b5f036118cb57604051634c9c8ce360e01b81526001600160a01b0382166004820152602401610585565b5f516020611e825f395f51905f5280546001600160a01b0319166001600160a01b0392909216919091179055565b60605f61190684846119b8565b905080801561192757505f3d118061192757505f846001600160a01b03163b115b1561193c576119346119cb565b9150506115c3565b801561196657604051639996b31560e01b81526001600160a01b0385166004820152602401610585565b3d15611979576119746119e4565b611992565b60405163d6bda27560e01b815260040160405180910390fd5b5092915050565b3415610b7f5760405163b398979f60e01b815260040160405180910390fd5b5f5f5f835160208501865af49392505050565b6040513d81523d5f602083013e3d602001810160405290565b6040513d5f823e3d81fd5b828054828255905f5260205f20908101928215611a28579160200282015b82811115611a28578235825591602001919060010190611a0d565b50611a34929150611a38565b5090565b5b80821115611a34575f8155600101611a39565b80356001600160a01b0381168114611a62575f5ffd5b919050565b5f60208284031215611a77575f5ffd5b611a8082611a4c565b9392505050565b5f5f60408385031215611a98575f5ffd5b50508035926020909101359150565b5f5f60408385031215611ab8575f5ffd5b611ac183611a4c565b9150611acf60208401611a4c565b90509250929050565b634e487b7160e01b5f52604160045260245ffd5b5f5f60408385031215611afd575f5ffd5b611b0683611a4c565b9150602083013567ffffffffffffffff811115611b21575f5ffd5b8301601f81018513611b31575f5ffd5b803567ffffffffffffffff811115611b4b57611b4b611ad8565b604051601f8201601f19908116603f0116810167ffffffffffffffff81118282101715611b7a57611b7a611ad8565b604052818152828201602001871015611b91575f5ffd5b816020840160208301375f602083830101528093505050509250929050565b5f60208284031215611bc0575f5ffd5b5035919050565b634e487b7160e01b5f52602160045260245ffd5b610140810160058c10611bfc57634e487b7160e01b5f52602160045260245ffd5b9a81526001600160a01b03998a1660208201529790981660408801526060870195909552608086019390935260a085019190915260c084015260e0830152610100820152610120015290565b5f5f60408385031215611c59575f5ffd5b82359150611acf60208401611a4c565b602081525f82518060208401528060208501604085015e5f604082850101526040601f19601f83011684010191505092915050565b5f5f5f60408486031215611cb0575f5ffd5b83359250602084013567ffffffffffffffff811115611ccd575f5ffd5b8401601f81018613611cdd575f5ffd5b803567ffffffffffffffff811115611cf3575f5ffd5b8660208260051b8401011115611d07575f5ffd5b939660209190910195509293505050565b5f5f5f60608486031215611d2a575f5ffd5b505081359360208301359350604090920135919050565b6020808252601c908201527f4d697373696f6e206e6f7420696e204352454154454420737461746500000000604082015260600190565b634e487b7160e01b5f52601160045260245ffd5b808201808211156115c3576115c3611d78565b5f60208284031215611daf575f5ffd5b81518015158114611a80575f5ffd5b602080825281018290525f6001600160fb1b03831115611ddc575f5ffd5b8260051b80856040850137919091016040019392505050565b818103818111156115c3576115c3611d78565b80820281158282048414176115c3576115c3611d78565b5f82611e3957634e487b7160e01b5f52601260045260245ffd5b500490565b5f60018201611e4f57611e4f611d78565b5060010190565b634e487b7160e01b5f52603260045260245ffd5b5f60208284031215611e7a575f5ffd5b505191905056fe360894a13ba1a3210667c828492db98dca3e2076cc3735a920a3ca505d382bbca264697066735822122033a05ff65cdd20a02a5dbae869e89febfe1062990324f582d549ac66b378ad5164736f6c634300081c0033","linkReferences":{}},"methodIdentifiers":{"DISPUTE_WINDOW()":"f585dc57","TIMEOUT_HOLD_BPS()":"17220f8a","UPGRADE_INTERFACE_VERSION()":"ad3cb1cc","assignMission(bytes32,address)":"bb30c940","checkDepsResolved(bytes32)":"fed0deb4","createMission(uint256)":"fa8066c4","disputeEndTimes(bytes32)":"6674d970","fundMission(bytes32,uint256)":"5e7d2b4a","initialize(address,address)":"485cc955","missionCounter()":"b2763455","missionDeps(bytes32,uint256)":"43ef62bd","missions(bytes32)":"5f62e5ad","owner()":"8da5cb5b","proxiableUUID()":"52d1902d","registerAgent(address)":"306b9bb9","registeredAgents(address)":"74ee82fc","renounceOwnership()":"715018a6","resolveDispute(bytes32,address)":"6a874466","setDependencies(bytes32,bytes32[])":"bffe1621","submitEAL(bytes32,bytes32,uint256)":"e1f5f866","timeoutHolds(bytes32)":"5e2bef2c","transferOwnership(address)":"f2fde38b","triggerTimeout(bytes32)":"ed7bcf05","upgradeToAndCall(address,bytes)":"4f1ef286","usdc()":"3e413bee"},"id":42}